:020000020000FC
:1000000008E00EBF0FEF0DBF00C00FEF0DB90AB92A
:1000100000E010E00E9411000395E1F71395D1F77D
:10002000F4CF24E00E9427002A95E1F70E944000C7
:100030000E9427000E9452000E9427000E94630035
:100040000E9427000E9474000E94270008950F93C9
:100050001F932F933F93009101001091FA0020917C
:10006000FA00309105003A95F1F72A95D1F71A95E3
:10007000B1F70A9561F73F912F911F910F91089564
:100080000F931F93E0E0F2E001E000950EB900E06D
:1000900012951F70E10FF01F049100950BB91F918D
:1000A0000F9108950F931F93E0E0F2E002E00095B6
:1000B0000EB900E01F70E10FF01F049100950BB91D
:1000C0001F910F9108950F931F93E0E0F2E014E069
:1000D00010955EB910E002950F70E00F1491109525
:1000E0001BB91F910F9108950F931F93E0E0F2E069
:1000F00018E010951EB90F70E00F149110951BB900
:080100001F910F910895FFCF3C
:00000001FF
