:020000020000FC
:0A00000008E00EBF0FEF0DBF35C082
:100064007E306D79335B5F707F7B771F4E3D4F47EA
:100074000FEF0DB90AB904B90FE010E004511040B4
:1000840063F00AF010C0F0E0E1E0009510950E0F67
:100094001F1F3BF060E265B906C01AF074E075B941
:1000A40002C074E275B90E945800E2CF22E00E94B7
:1000B4008E002A95E1F738E041E030930001409347
:1000C4000101009302010E94A3000E948E0034E00B
:1000D40040E03093000140930101009302010E942B
:1000E400A3000E948E0032E041E03093000140936F
:1000F4000101109302010E94A3000E948E0031E0CE
:1001040040E03093000140930101109302010E94EA
:10011400A3000E948E0008950F931F932F933F9383
:1001240001E015E029E134E63A95F1F72A95D9F78B
:100134001A95C1F70A9581F73F912F911F910F915D
:1001440008950F931F932F93E4E6F0E000910001CC
:1001540000950EB900E020910101201710910201D1
:1001640009F412951F70E10FF01F049100950BB96B
:0A0174002F911F910F910895FFCF06
:00000001FF
