:020000020000FC
:0A00000008E00EBF0FEF0DBF35C082
:100064007E306D79335B5F707F7B771F4E3D4F47EA
:100074000FEF0DB90AB904B902EC1EEF0F5011408D
:100084005BF002F4F0E0E1E0009510950E0F1F1F05
:100094003BF060E265B906C01AF474E075B902C0B9
:1000A40074E275B90E945700E3CF22E00E948D00EC
:1000B4002A95E1F731E041E03093000140930101DA
:1000C400009302010E94A2000E948D0032E040E0F1
:1000D4003093000140930101009302010E94A200A9
:1000E4000E948D0034E041E030930001409301010F
:1000F400109302010E94A2000E948D0038E040E0AB
:100104003093000140930101109302010E94A20068
:100114000E948D0008950F931F932F933F9301E046
:1001240015E029E134E63A95F1F72A95D9F71A95BD
:10013400C1F70A9581F73F912F911F910F9108956F
:100144000F931F932F93E4E6F0E0009100010095D4
:100154000EB900E02091010120171091020109F469
:1001640012951F70E10FF01F049100950BB92F91A8
:080174001F910F910895FFCFC8
:00000001FF
