:020000020000FC
:0A00000008E00EBF0FEF0DBF35C082
:100064007E306D79335B5F707F7B771F4E3D4F47EA
:100074000FEF0DB90AB904B900E015E000501240C1
:100084001AF033F00C944C0063E063B90C94430011
:100094007CE073B90E944F00EBCF22E00E94850000
:1000A4002A95E1F731E041E03093000140930101EA
:1000B400009302010E949A000E94850032E040E011
:1000C4003093000140930101009302010E949A00C1
:1000D4000E94850034E041E0309300014093010127
:1000E400109302010E949A000E94850038E040E0CB
:1000F4003093000140930101109302010E949A0081
:100104000E94850008950F931F932F933F9301E05E
:1001140015E029E134E63A95F1F72A95D9F71A95CD
:10012400C1F70A9581F73F912F911F910F9108957F
:100134000F931F932F93E4E6F0E0009100010095E4
:100144000EB900E02091010120171091020109F479
:1001540012951F70E10FF01F049100950BB92F91B8
:080164001F910F910895FFCFD8
:00000001FF
