:020000020000FC
:0200000039C005
:100064007E306D79335B5F707F7B771F4E3D4F47EA
:1000740008E00EBF0FEF0DBF0FEF0AB90DB940E056
:1000840050E00E945A004395E1F75395D1F7F7CF1A
:100094000F931F932F9306E916E928E02A95F1F7A9
:1000A4001A95D9F70A95C1F72F911F910F910895C9
:1000B400A0E10E944A00AA95E1F70E9470000E9404
:1000C4004A000E9482000E944A000E9493000E94FB
:1000D4004A000E94A5000E944A0008954F935F932E
:1000E400E4E6F0E041E0409548B940E052955F70A5
:1000F400E50FF41F449140954BB95F914F910895DA
:100104004F935F93E4E6F0E042E0409548B940E065
:100114005F70E50FF41F449140954BB95F914F9187
:1001240008954F935F93E4E6F0E054E0509558B996
:1001340050E042954F70E40FF51F549150955BB910
:100144005F914F9108954F935F93E4E6F0E058E098
:10015400509558B950E04F70E40FF51F54915095E5
:0A0164005BB95F914F910895FFCF42
:00000001FF
