:020000020000FC
:0200000039C005
:100064007E306D79335B5F707F7B771F4E3D4F47EA
:1000740008E00EBF0FEF0DBF0FEF0AB90DB940E056
:1000840050E00E9456004395E1F75395D1F7F7CF1E
:100094000F931F9306EF12E300001A95E9F70A95F0
:1000A400D1F71F910F910895A3E00E944A00AA95E9
:1000B400E1F70E946C000E944A000E947C000E94AA
:1000C4004A000E948B000E944A000E949B000E94EA
:1000D4004A0008954F935F93E4E6F0E041E04095D1
:1000E4004EB952955F70E50F449140954BB95F91BD
:1000F4004F9108954F935F93E4E6F0E042E040951A
:100104004EB95F70E50F449140954BB95F914F91A3
:1001140008954F935F93E4E6F0E054E050955EB9A0
:1001240042954F70E40F549150955BB95F914F9194
:1001340008954F935F93E4E6F0E058E050955EB97C
:100144004F70E40F549150955BB95F914F910895AE
:02015400FFCFDB
:00000001FF
