:020000020000FC
:0A00000008E00EBF0FEF0DBF35C082
:100064007E306D79335B5F707F7B771F4E3D4F47EA
:100074000FEF0DB90AB904B900E012E300401052C1
:100084001AF063F00C945200F0E0E1E00095109552
:100094001E0F0F1F60E266B90C94430078E076B936
:1000A40005951795802F912F05951795059517950B
:1000B40005951795190F081F0E946100D9CF22E0FA
:1000C4000E9497002A95E1F731E041E03093000166
:1000D40040930101109302010E94AC000E9497001A
:1000E40032E040E03093000140930101109302019B
:1000F4000E94AC000E94970034E041E0309300017C
:1001040040930101009302010E94AC000E949700F9
:1001140038E040E030930001409301010093020174
:100124000E94AC000E94970008952F933F934F9331
:100134005F9321E035E049E154E65A95F1F74A9599
:10014400D9F73A95C1F72A9581F75F914F913F917D
:100154002F9108950F931F932F93E4E6F0E00091FD
:10016400000100950EB900E02091010120171091C3
:10017400020109F412951F70E10FF01F049100951C
:0C0184000BB92F911F910F910895FFCF30
:00000001FF
