:020000020000FC
:0A00000008E00EBF0FEF0DBF35C082
:100064007E306D79335B5F707F7B771F4E3D4F47EA
:100074000FEF0DB90AB904B902E016E200401052BC
:100084001AF063F00C945200F0E0E1E00095109552
:100094001E0F0F1F60E266B90C94430078E076B936
:1000A40005951795802F912F05951795059517950B
:1000B40005951795190F081F0E946100D9CF22E0FA
:1000C4000E9497002A95E1F731E041E03093000166
:1000D40040930101109302010E94AC000E9497001A
:1000E40032E040E03093000140930101109302019B
:1000F4000E94AC000E94970034E041E0309300017C
:1001040040930101009302010E94AC000E949700F9
:1001140038E040E030930001409301010093020174
:100124000E94AC000E94970008950F931F932F9391
:100134003F9301E015E029E134E63A95F1F72A9579
:10014400D9F71A95C1F70A9581F73F912F911F911D
:100154000F9108950F931F932F93E4E6F0E000911D
:10016400000100950EB900E02091010120171091C3
:10017400020109F412951F70E10FF01F049100951C
:0C0184000BB92F911F910F910895FFCF30
:00000001FF
