:020000020000FC
:0A00000008E00EBF0FEF0DBF35C082
:100064007E306D79335B5F707F7B771F4E3D4F47EA
:100074000FEF0DB90AB904B904E610E000521040BC
:100084006BF012F00C945600F0E0E1E0009510954E
:100094000E0F1F1F3BF060E265B912C01AF074E046
:1000A40075B90EC074E275B915950795812F902F17
:1000B400159507951595079515950795090F181F1B
:1000C4000E946500D5CF22E00E949B002A95E1F7AB
:1000D40038E041E0309300014093010100930201B4
:1000E4000E94B0000E949B0034E040E03093000185
:1000F40040930101009302010E94B0000E949B0002
:1001040032E041E030930001409301011093020179
:100114000E94B0000E949B0031E040E03093000157
:1001240040930101109302010E94B0000E949B00C1
:1001340008950F931F932F933F9301E015E029E156
:1001440034E63A95F1F72A95D9F71A95C1F70A9545
:1001540081F73F912F911F910F9108950F931F9352
:100164002F93E4E6F0E00091000100950EB900E061
:100174002091010120171091020109F412951F70BA
:10018400E10FF01F049100950BB92F911F910F916E
:040194000895FFCFFC
:00000001FF
