:020000020000FC
:0A00000008E00EBF0FEF0DBF36C081
:100064007E306D79335B5F707F7B771F4E3D4F47EA
:1000740047000FEF0DB90AB904B900E010E00050D1
:1000840016422BF002F43BF060E265B906C01AF4A4
:1000940074E075B902C074E275B90E945200E9CFE8
:1000A40024E00E9488002A95E1F731E041E0309392
:1000B400000140930101009302010E949D000E94EF
:1000C400880032E040E03093000140930101009346
:1000D40002010E949D000E94880034E041E03093B8
:1000E400000140930101109302010E949D000E94AF
:1000F400880038E040E03093000140930101109300
:1001040002010E949D000E94880008950F931F938E
:100114002F933F9301E015E029E134E63A95F1F796
:100124002A95D9F71A95C1F70A9581F73F912F912E
:100134001F910F9108950F931F932F93E4E6F0E01E
:100144000091000100950EB900E0209101012017F3
:100154001091020109F412951F70E10FF01F049130
:0E01640000950BB92F911F910F910895FFCFB9
:00000001FF
